{
  "_format": "hh-sol-artifact-1",
  "contractName": "Token",
  "sourceName": "contracts/Token.sol",
  "abi": [
    {
      "inputs": [
        {
          "internalType": "address",
          "name": "marketplaceAddress",
          "type": "address"
        }
      ],
      "stateMutability": "nonpayable",
      "type": "constructor"
    },
    {
      "anonymous": false,
      "inputs": [
        {
          "indexed": true,
          "internalType": "address",
          "name": "owner",
          "type": "address"
        },
        {
          "indexed": true,
          "internalType": "address",
          "name": "approved",
          "type": "address"
        },
        {
          "indexed": true,
          "internalType": "uint256",
          "name": "tokenId",
          "type": "uint256"
        }
      ],
      "name": "Approval",
      "type": "event"
    },
    {
      "anonymous": false,
      "inputs": [
        {
          "indexed": true,
          "internalType": "address",
          "name": "owner",
          "type": "address"
        },
        {
          "indexed": true,
          "internalType": "address",
          "name": "operator",
          "type": "address"
        },
        {
          "indexed": false,
          "internalType": "bool",
          "name": "approved",
          "type": "bool"
        }
      ],
      "name": "ApprovalForAll",
      "type": "event"
    },
    {
      "anonymous": false,
      "inputs": [
        {
          "indexed": true,
          "internalType": "address",
          "name": "from",
          "type": "address"
        },
        {
          "indexed": true,
          "internalType": "address",
          "name": "to",
          "type": "address"
        },
        {
          "indexed": true,
          "internalType": "uint256",
          "name": "tokenId",
          "type": "uint256"
        }
      ],
      "name": "Transfer",
      "type": "event"
    },
    {
      "anonymous": false,
      "inputs": [
        {
          "indexed": false,
          "internalType": "uint256",
          "name": "tokenId",
          "type": "uint256"
        }
      ],
      "name": "tokenCreated",
      "type": "event"
    },
    {
      "inputs": [
        {
          "internalType": "address",
          "name": "to",
          "type": "address"
        },
        {
          "internalType": "uint256",
          "name": "tokenId",
          "type": "uint256"
        }
      ],
      "name": "approve",
      "outputs": [],
      "stateMutability": "nonpayable",
      "type": "function"
    },
    {
      "inputs": [
        {
          "internalType": "address",
          "name": "owner",
          "type": "address"
        }
      ],
      "name": "balanceOf",
      "outputs": [
        {
          "internalType": "uint256",
          "name": "",
          "type": "uint256"
        }
      ],
      "stateMutability": "view",
      "type": "function"
    },
    {
      "inputs": [
        {
          "internalType": "uint256",
          "name": "tokenId",
          "type": "uint256"
        }
      ],
      "name": "burnToken",
      "outputs": [],
      "stateMutability": "nonpayable",
      "type": "function"
    },
    {
      "inputs": [
        {
          "internalType": "string",
          "name": "tokenURI",
          "type": "string"
        }
      ],
      "name": "createToken",
      "outputs": [
        {
          "internalType": "uint256",
          "name": "",
          "type": "uint256"
        }
      ],
      "stateMutability": "nonpayable",
      "type": "function"
    },
    {
      "inputs": [
        {
          "internalType": "uint256",
          "name": "tokenId",
          "type": "uint256"
        }
      ],
      "name": "getApproved",
      "outputs": [
        {
          "internalType": "address",
          "name": "",
          "type": "address"
        }
      ],
      "stateMutability": "view",
      "type": "function"
    },
    {
      "inputs": [
        {
          "internalType": "address",
          "name": "owner",
          "type": "address"
        },
        {
          "internalType": "address",
          "name": "operator",
          "type": "address"
        }
      ],
      "name": "isApprovedForAll",
      "outputs": [
        {
          "internalType": "bool",
          "name": "",
          "type": "bool"
        }
      ],
      "stateMutability": "view",
      "type": "function"
    },
    {
      "inputs": [],
      "name": "name",
      "outputs": [
        {
          "internalType": "string",
          "name": "",
          "type": "string"
        }
      ],
      "stateMutability": "view",
      "type": "function"
    },
    {
      "inputs": [
        {
          "internalType": "uint256",
          "name": "tokenId",
          "type": "uint256"
        }
      ],
      "name": "ownerOf",
      "outputs": [
        {
          "internalType": "address",
          "name": "",
          "type": "address"
        }
      ],
      "stateMutability": "view",
      "type": "function"
    },
    {
      "inputs": [
        {
          "internalType": "address",
          "name": "from",
          "type": "address"
        },
        {
          "internalType": "address",
          "name": "to",
          "type": "address"
        },
        {
          "internalType": "uint256",
          "name": "tokenId",
          "type": "uint256"
        }
      ],
      "name": "safeTransferFrom",
      "outputs": [],
      "stateMutability": "nonpayable",
      "type": "function"
    },
    {
      "inputs": [
        {
          "internalType": "address",
          "name": "from",
          "type": "address"
        },
        {
          "internalType": "address",
          "name": "to",
          "type": "address"
        },
        {
          "internalType": "uint256",
          "name": "tokenId",
          "type": "uint256"
        },
        {
          "internalType": "bytes",
          "name": "_data",
          "type": "bytes"
        }
      ],
      "name": "safeTransferFrom",
      "outputs": [],
      "stateMutability": "nonpayable",
      "type": "function"
    },
    {
      "inputs": [
        {
          "internalType": "address",
          "name": "operator",
          "type": "address"
        },
        {
          "internalType": "bool",
          "name": "approved",
          "type": "bool"
        }
      ],
      "name": "setApprovalForAll",
      "outputs": [],
      "stateMutability": "nonpayable",
      "type": "function"
    },
    {
      "inputs": [
        {
          "internalType": "bytes4",
          "name": "interfaceId",
          "type": "bytes4"
        }
      ],
      "name": "supportsInterface",
      "outputs": [
        {
          "internalType": "bool",
          "name": "",
          "type": "bool"
        }
      ],
      "stateMutability": "view",
      "type": "function"
    },
    {
      "inputs": [],
      "name": "symbol",
      "outputs": [
        {
          "internalType": "string",
          "name": "",
          "type": "string"
        }
      ],
      "stateMutability": "view",
      "type": "function"
    },
    {
      "inputs": [
        {
          "internalType": "uint256",
          "name": "tokenId",
          "type": "uint256"
        }
      ],
      "name": "tokenURI",
      "outputs": [
        {
          "internalType": "string",
          "name": "",
          "type": "string"
        }
      ],
      "stateMutability": "view",
      "type": "function"
    },
    {
      "inputs": [
        {
          "internalType": "address",
          "name": "from",
          "type": "address"
        },
        {
          "internalType": "address",
          "name": "to",
          "type": "address"
        },
        {
          "internalType": "uint256",
          "name": "tokenId",
          "type": "uint256"
        }
      ],
      "name": "transferFrom",
      "outputs": [],
      "stateMutability": "nonpayable",
      "type": "function"
    }
  ],
  "bytecode": "0x60806040523480156200001157600080fd5b5060405162001a2938038062001a2983398101604081905262000034916200016c565b604080518082018252600e81526d50726f6d69736520546f6b656e7360901b6020808301918252835180850190945260048452631414935560e21b9084015281519192916200008691600091620000c6565b5080516200009c906001906020840190620000c6565b5050600880546001600160a01b0319166001600160a01b03939093169290921790915550620001d9565b828054620000d4906200019c565b90600052602060002090601f016020900481019282620000f8576000855562000143565b82601f106200011357805160ff191683800117855562000143565b8280016001018555821562000143579182015b828111156200014357825182559160200191906001019062000126565b506200015192915062000155565b5090565b5b8082111562000151576000815560010162000156565b6000602082840312156200017e578081fd5b81516001600160a01b038116811462000195578182fd5b9392505050565b600181811c90821680620001b157607f821691505b60208210811415620001d357634e487b7160e01b600052602260045260246000fd5b50919050565b61184080620001e96000396000f3fe608060405234801561001057600080fd5b50600436106100f55760003560e01c80636352211e11610097578063a22cb46511610066578063a22cb465146101ff578063b88d4fde14610212578063c87b56dd14610225578063e985e9c51461023857600080fd5b80636352211e146101be57806370a08231146101d15780637b47ec1a146101e457806395d89b41146101f757600080fd5b8063095ea7b3116100d3578063095ea7b31461016257806323b872dd1461017757806342842e0e1461018a57806345576f941461019d57600080fd5b806301ffc9a7146100fa57806306fdde0314610122578063081812fc14610137575b600080fd5b61010d6101083660046114f5565b610274565b60405190151581526020015b60405180910390f35b61012a6102c6565b6040516101199190611623565b61014a610145366004611573565b610358565b6040516001600160a01b039091168152602001610119565b6101756101703660046114cc565b6103e5565b005b6101756101853660046113de565b6104fb565b6101756101983660046113de565b61052c565b6101b06101ab36600461152d565b610547565b604051908152602001610119565b61014a6101cc366004611573565b6105c8565b6101b06101df366004611392565b61063f565b6101756101f2366004611573565b6106c6565b61012a6106d2565b61017561020d366004611492565b6106e1565b610175610220366004611419565b6107a6565b61012a610233366004611573565b6107de565b61010d6102463660046113ac565b6001600160a01b03918216600090815260056020908152604080832093909416825291909152205460ff1690565b60006001600160e01b031982166380ac58cd60e01b14806102a557506001600160e01b03198216635b5e139f60e01b145b806102c057506301ffc9a760e01b6001600160e01b03198316145b92915050565b6060600080546102d590611748565b80601f016020809104026020016040519081016040528092919081815260200182805461030190611748565b801561034e5780601f106103235761010080835404028352916020019161034e565b820191906000526020600020905b81548152906001019060200180831161033157829003601f168201915b5050505050905090565b600061036382610955565b6103c95760405162461bcd60e51b815260206004820152602c60248201527f4552433732313a20617070726f76656420717565727920666f72206e6f6e657860448201526b34b9ba32b73a103a37b5b2b760a11b60648201526084015b60405180910390fd5b506000908152600460205260409020546001600160a01b031690565b60006103f0826105c8565b9050806001600160a01b0316836001600160a01b0316141561045e5760405162461bcd60e51b815260206004820152602160248201527f4552433732313a20617070726f76616c20746f2063757272656e74206f776e656044820152603960f91b60648201526084016103c0565b336001600160a01b038216148061047a575061047a8133610246565b6104ec5760405162461bcd60e51b815260206004820152603860248201527f4552433732313a20617070726f76652063616c6c6572206973206e6f74206f7760448201527f6e6572206e6f7220617070726f76656420666f7220616c6c000000000000000060648201526084016103c0565b6104f68383610972565b505050565b61050533826109e0565b6105215760405162461bcd60e51b81526004016103c090611688565b6104f6838383610ac6565b6104f6838383604051806020016040528060008152506107a6565b6000610557600780546001019055565b600061056260075490565b905061056e3382610c66565b6105788184610d99565b60085461058f906001600160a01b031660016106e1565b6040518181527f0a6b2a25f2764bb23ba81dc1f3c7e5885291c116a26ba73b46c15ed4948317419060200160405180910390a192915050565b6000818152600260205260408120546001600160a01b0316806102c05760405162461bcd60e51b815260206004820152602960248201527f4552433732313a206f776e657220717565727920666f72206e6f6e657869737460448201526832b73a103a37b5b2b760b91b60648201526084016103c0565b60006001600160a01b0382166106aa5760405162461bcd60e51b815260206004820152602a60248201527f4552433732313a2062616c616e636520717565727920666f7220746865207a65604482015269726f206164647265737360b01b60648201526084016103c0565b506001600160a01b031660009081526003602052604090205490565b6106cf81610e24565b50565b6060600180546102d590611748565b6001600160a01b03821633141561073a5760405162461bcd60e51b815260206004820152601960248201527f4552433732313a20617070726f766520746f2063616c6c65720000000000000060448201526064016103c0565b3360008181526005602090815260408083206001600160a01b03871680855290835292819020805460ff191686151590811790915590519081529192917f17307eab39ab6107e8899845ad3d59bd9653f200f220920489ca2b5937696c31910160405180910390a35050565b6107b033836109e0565b6107cc5760405162461bcd60e51b81526004016103c090611688565b6107d884848484610e64565b50505050565b60606107e982610955565b61084f5760405162461bcd60e51b815260206004820152603160248201527f45524337323155524953746f726167653a2055524920717565727920666f72206044820152703737b732bc34b9ba32b73a103a37b5b2b760791b60648201526084016103c0565b6000828152600660205260408120805461086890611748565b80601f016020809104026020016040519081016040528092919081815260200182805461089490611748565b80156108e15780601f106108b6576101008083540402835291602001916108e1565b820191906000526020600020905b8154815290600101906020018083116108c457829003601f168201915b5050505050905060006108ff60408051602081019091526000815290565b9050805160001415610912575092915050565b81511561094457808260405160200161092c9291906115b7565b60405160208183030381529060405292505050919050565b61094d84610e97565b949350505050565b6000908152600260205260409020546001600160a01b0316151590565b600081815260046020526040902080546001600160a01b0319166001600160a01b03841690811790915581906109a7826105c8565b6001600160a01b03167f8c5be1e5ebec7d5bd14f71427d1e84f3dd0314c0f7b2291e5b200ac8c7c3b92560405160405180910390a45050565b60006109eb82610955565b610a4c5760405162461bcd60e51b815260206004820152602c60248201527f4552433732313a206f70657261746f7220717565727920666f72206e6f6e657860448201526b34b9ba32b73a103a37b5b2b760a11b60648201526084016103c0565b6000610a57836105c8565b9050806001600160a01b0316846001600160a01b03161480610a925750836001600160a01b0316610a8784610358565b6001600160a01b0316145b8061094d57506001600160a01b0380821660009081526005602090815260408083209388168352929052205460ff1661094d565b826001600160a01b0316610ad9826105c8565b6001600160a01b031614610b415760405162461bcd60e51b815260206004820152602960248201527f4552433732313a207472616e73666572206f6620746f6b656e2074686174206960448201526839903737ba1037bbb760b91b60648201526084016103c0565b6001600160a01b038216610ba35760405162461bcd60e51b8152602060048201526024808201527f4552433732313a207472616e7366657220746f20746865207a65726f206164646044820152637265737360e01b60648201526084016103c0565b610bae600082610972565b6001600160a01b0383166000908152600360205260408120805460019290610bd7908490611705565b90915550506001600160a01b0382166000908152600360205260408120805460019290610c059084906116d9565b909155505060008181526002602052604080822080546001600160a01b0319166001600160a01b0386811691821790925591518493918716917fddf252ad1be2c89b69c2b068fc378daa952ba7f163c4a11628f55a4df523b3ef91a4505050565b6001600160a01b038216610cbc5760405162461bcd60e51b815260206004820181905260248201527f4552433732313a206d696e7420746f20746865207a65726f206164647265737360448201526064016103c0565b610cc581610955565b15610d125760405162461bcd60e51b815260206004820152601c60248201527f4552433732313a20746f6b656e20616c7265616479206d696e7465640000000060448201526064016103c0565b6001600160a01b0382166000908152600360205260408120805460019290610d3b9084906116d9565b909155505060008181526002602052604080822080546001600160a01b0319166001600160a01b03861690811790915590518392907fddf252ad1be2c89b69c2b068fc378daa952ba7f163c4a11628f55a4df523b3ef908290a45050565b610da282610955565b610e055760405162461bcd60e51b815260206004820152602e60248201527f45524337323155524953746f726167653a2055524920736574206f66206e6f6e60448201526d32bc34b9ba32b73a103a37b5b2b760911b60648201526084016103c0565b600082815260066020908152604090912082516104f692840190611231565b610e2d81610f6f565b60008181526006602052604090208054610e4690611748565b1590506106cf5760008181526006602052604081206106cf916112b5565b610e6f848484610ac6565b610e7b8484848461100a565b6107d85760405162461bcd60e51b81526004016103c090611636565b6060610ea282610955565b610f065760405162461bcd60e51b815260206004820152602f60248201527f4552433732314d657461646174613a2055524920717565727920666f72206e6f60448201526e3732bc34b9ba32b73a103a37b5b2b760891b60648201526084016103c0565b6000610f1d60408051602081019091526000815290565b90506000815111610f3d5760405180602001604052806000815250610f68565b80610f4784611117565b604051602001610f589291906115b7565b6040516020818303038152906040525b9392505050565b6000610f7a826105c8565b9050610f87600083610972565b6001600160a01b0381166000908152600360205260408120805460019290610fb0908490611705565b909155505060008281526002602052604080822080546001600160a01b0319169055518391906001600160a01b038416907fddf252ad1be2c89b69c2b068fc378daa952ba7f163c4a11628f55a4df523b3ef908390a45050565b60006001600160a01b0384163b1561110c57604051630a85bd0160e11b81526001600160a01b0385169063150b7a029061104e9033908990889088906004016115e6565b602060405180830381600087803b15801561106857600080fd5b505af1925050508015611098575060408051601f3d908101601f1916820190925261109591810190611511565b60015b6110f2573d8080156110c6576040519150601f19603f3d011682016040523d82523d6000602084013e6110cb565b606091505b5080516110ea5760405162461bcd60e51b81526004016103c090611636565b805181602001fd5b6001600160e01b031916630a85bd0160e11b14905061094d565b506001949350505050565b60608161113b5750506040805180820190915260018152600360fc1b602082015290565b8160005b8115611165578061114f81611783565b915061115e9050600a836116f1565b915061113f565b60008167ffffffffffffffff81111561118e57634e487b7160e01b600052604160045260246000fd5b6040519080825280601f01601f1916602001820160405280156111b8576020820181803683370190505b5090505b841561094d576111cd600183611705565b91506111da600a8661179e565b6111e59060306116d9565b60f81b81838151811061120857634e487b7160e01b600052603260045260246000fd5b60200101906001600160f81b031916908160001a90535061122a600a866116f1565b94506111bc565b82805461123d90611748565b90600052602060002090601f01602090048101928261125f57600085556112a5565b82601f1061127857805160ff19168380011785556112a5565b828001600101855582156112a5579182015b828111156112a557825182559160200191906001019061128a565b506112b19291506112eb565b5090565b5080546112c190611748565b6000825580601f106112d1575050565b601f0160209004906000526020600020908101906106cf91905b5b808211156112b157600081556001016112ec565b600067ffffffffffffffff8084111561131b5761131b6117de565b604051601f8501601f19908116603f01168101908282118183101715611343576113436117de565b8160405280935085815286868601111561135c57600080fd5b858560208301376000602087830101525050509392505050565b80356001600160a01b038116811461138d57600080fd5b919050565b6000602082840312156113a3578081fd5b610f6882611376565b600080604083850312156113be578081fd5b6113c783611376565b91506113d560208401611376565b90509250929050565b6000806000606084860312156113f2578081fd5b6113fb84611376565b925061140960208501611376565b9150604084013590509250925092565b6000806000806080858703121561142e578081fd5b61143785611376565b935061144560208601611376565b925060408501359150606085013567ffffffffffffffff811115611467578182fd5b8501601f81018713611477578182fd5b61148687823560208401611300565b91505092959194509250565b600080604083850312156114a4578182fd5b6114ad83611376565b9150602083013580151581146114c1578182fd5b809150509250929050565b600080604083850312156114de578182fd5b6114e783611376565b946020939093013593505050565b600060208284031215611506578081fd5b8135610f68816117f4565b600060208284031215611522578081fd5b8151610f68816117f4565b60006020828403121561153e578081fd5b813567ffffffffffffffff811115611554578182fd5b8201601f81018413611564578182fd5b61094d84823560208401611300565b600060208284031215611584578081fd5b5035919050565b600081518084526115a381602086016020860161171c565b601f01601f19169290920160200192915050565b600083516115c981846020880161171c565b8351908301906115dd81836020880161171c565b01949350505050565b6001600160a01b03858116825284166020820152604081018390526080606082018190526000906116199083018461158b565b9695505050505050565b602081526000610f68602083018461158b565b60208082526032908201527f4552433732313a207472616e7366657220746f206e6f6e20455243373231526560408201527131b2b4bb32b91034b6b83632b6b2b73a32b960711b606082015260800190565b60208082526031908201527f4552433732313a207472616e736665722063616c6c6572206973206e6f74206f6040820152701ddb995c881b9bdc88185c1c1c9bdd9959607a1b606082015260800190565b600082198211156116ec576116ec6117b2565b500190565b600082611700576117006117c8565b500490565b600082821015611717576117176117b2565b500390565b60005b8381101561173757818101518382015260200161171f565b838111156107d85750506000910152565b600181811c9082168061175c57607f821691505b6020821081141561177d57634e487b7160e01b600052602260045260246000fd5b50919050565b6000600019821415611797576117976117b2565b5060010190565b6000826117ad576117ad6117c8565b500690565b634e487b7160e01b600052601160045260246000fd5b634e487b7160e01b600052601260045260246000fd5b634e487b7160e01b600052604160045260246000fd5b6001600160e01b0319811681146106cf57600080fdfea26469706673582212203874dbaf1b0d62f8f20cb232be89539e01aa9b872a6cbc4b171ebddeaede5d5b64736f6c63430008040033",
  "linkReferences": {},
  "deployedLinkReferences": {}
}