{
  "_format": "hh-sol-artifact-1",
  "contractName": "Marketplace",
  "sourceName": "contracts/Marketplace.sol",
  "abi": [
    {
      "inputs": [],
      "stateMutability": "nonpayable",
      "type": "constructor"
    },
    {
      "anonymous": false,
      "inputs": [
        {
          "indexed": true,
          "internalType": "uint256",
          "name": "itemId",
          "type": "uint256"
        },
        {
          "indexed": true,
          "internalType": "address",
          "name": "nftContract",
          "type": "address"
        },
        {
          "indexed": true,
          "internalType": "uint256",
          "name": "tokenId",
          "type": "uint256"
        },
        {
          "indexed": false,
          "internalType": "address",
          "name": "seller",
          "type": "address"
        },
        {
          "indexed": false,
          "internalType": "address",
          "name": "owner",
          "type": "address"
        },
        {
          "indexed": false,
          "internalType": "uint256",
          "name": "price",
          "type": "uint256"
        },
        {
          "indexed": false,
          "internalType": "bool",
          "name": "sold",
          "type": "bool"
        }
      ],
      "name": "NFTCreated",
      "type": "event"
    },
    {
      "inputs": [
        {
          "internalType": "uint256",
          "name": "itemId",
          "type": "uint256"
        }
      ],
      "name": "approve",
      "outputs": [],
      "stateMutability": "nonpayable",
      "type": "function"
    },
    {
      "inputs": [
        {
          "internalType": "address",
          "name": "nftContract",
          "type": "address"
        },
        {
          "internalType": "uint256",
          "name": "itemId",
          "type": "uint256"
        }
      ],
      "name": "buyNFT",
      "outputs": [],
      "stateMutability": "payable",
      "type": "function"
    },
    {
      "inputs": [
        {
          "internalType": "address",
          "name": "nftContract",
          "type": "address"
        },
        {
          "internalType": "uint256",
          "name": "tokenId",
          "type": "uint256"
        },
        {
          "internalType": "uint256",
          "name": "price",
          "type": "uint256"
        }
      ],
      "name": "createNFTonMarket",
      "outputs": [],
      "stateMutability": "payable",
      "type": "function"
    },
    {
      "inputs": [
        {
          "internalType": "uint256",
          "name": "itemId",
          "type": "uint256"
        }
      ],
      "name": "disapprove",
      "outputs": [],
      "stateMutability": "nonpayable",
      "type": "function"
    },
    {
      "inputs": [],
      "name": "fetchItemsCreated",
      "outputs": [
        {
          "components": [
            {
              "internalType": "uint256",
              "name": "itemId",
              "type": "uint256"
            },
            {
              "internalType": "address",
              "name": "nftContract",
              "type": "address"
            },
            {
              "internalType": "uint256",
              "name": "tokenId",
              "type": "uint256"
            },
            {
              "internalType": "address payable",
              "name": "seller",
              "type": "address"
            },
            {
              "internalType": "address payable",
              "name": "owner",
              "type": "address"
            },
            {
              "internalType": "uint256",
              "name": "price",
              "type": "uint256"
            },
            {
              "internalType": "bool",
              "name": "sold",
              "type": "bool"
            },
            {
              "internalType": "uint256",
              "name": "staked",
              "type": "uint256"
            }
          ],
          "internalType": "struct Marketplace.NFT[]",
          "name": "",
          "type": "tuple[]"
        }
      ],
      "stateMutability": "view",
      "type": "function"
    },
    {
      "inputs": [],
      "name": "fetchMarketItems",
      "outputs": [
        {
          "components": [
            {
              "internalType": "uint256",
              "name": "itemId",
              "type": "uint256"
            },
            {
              "internalType": "address",
              "name": "nftContract",
              "type": "address"
            },
            {
              "internalType": "uint256",
              "name": "tokenId",
              "type": "uint256"
            },
            {
              "internalType": "address payable",
              "name": "seller",
              "type": "address"
            },
            {
              "internalType": "address payable",
              "name": "owner",
              "type": "address"
            },
            {
              "internalType": "uint256",
              "name": "price",
              "type": "uint256"
            },
            {
              "internalType": "bool",
              "name": "sold",
              "type": "bool"
            },
            {
              "internalType": "uint256",
              "name": "staked",
              "type": "uint256"
            }
          ],
          "internalType": "struct Marketplace.NFT[]",
          "name": "",
          "type": "tuple[]"
        }
      ],
      "stateMutability": "view",
      "type": "function"
    },
    {
      "inputs": [],
      "name": "fetchMyNFTs",
      "outputs": [
        {
          "components": [
            {
              "internalType": "uint256",
              "name": "itemId",
              "type": "uint256"
            },
            {
              "internalType": "address",
              "name": "nftContract",
              "type": "address"
            },
            {
              "internalType": "uint256",
              "name": "tokenId",
              "type": "uint256"
            },
            {
              "internalType": "address payable",
              "name": "seller",
              "type": "address"
            },
            {
              "internalType": "address payable",
              "name": "owner",
              "type": "address"
            },
            {
              "internalType": "uint256",
              "name": "price",
              "type": "uint256"
            },
            {
              "internalType": "bool",
              "name": "sold",
              "type": "bool"
            },
            {
              "internalType": "uint256",
              "name": "staked",
              "type": "uint256"
            }
          ],
          "internalType": "struct Marketplace.NFT[]",
          "name": "",
          "type": "tuple[]"
        }
      ],
      "stateMutability": "view",
      "type": "function"
    },
    {
      "inputs": [
        {
          "internalType": "uint256",
          "name": "itemId",
          "type": "uint256"
        }
      ],
      "name": "getPriceofNFT",
      "outputs": [
        {
          "internalType": "uint256",
          "name": "",
          "type": "uint256"
        }
      ],
      "stateMutability": "view",
      "type": "function"
    },
    {
      "inputs": [
        {
          "internalType": "address",
          "name": "nftContract",
          "type": "address"
        },
        {
          "internalType": "uint256",
          "name": "tokenId",
          "type": "uint256"
        },
        {
          "internalType": "address",
          "name": "receipent",
          "type": "address"
        }
      ],
      "name": "transferNFT",
      "outputs": [],
      "stateMutability": "payable",
      "type": "function"
    }
  ],
  "bytecode": "0x6080604052662386f26fc1000060035534801561001b57600080fd5b506001600055600480546001600160a01b03191633179055611378806100426000396000f3fe6080604052600436106100865760003560e01c8063a82ba76f11610059578063a82ba76f14610100578063b759f95414610113578063d2f0922a14610133578063f064c32e14610146578063f2e208551461015b57600080fd5b80630f08efe01461008b578063202e3740146100b657806330e3e534146100cb5780638008df4f146100e0575b600080fd5b34801561009757600080fd5b506100a061019a565b6040516100ad9190611148565b60405180910390f35b3480156100c257600080fd5b506100a061038f565b6100de6100d93660046110fe565b610580565b005b3480156100ec57600080fd5b506100de6100fb366004611130565b61087a565b6100de61010e36600461109a565b61091f565b34801561011f57600080fd5b506100de61012e366004611130565b610b0e565b6100de6101413660046110c3565b610bd6565b34801561015257600080fd5b506100a0610d79565b34801561016757600080fd5b5061018c610176366004611130565b6000908152600560208190526040909120015490565b6040519081526020016100ad565b606060006101a760015490565b905060006101b460025490565b6001546101c191906112d8565b90506000808267ffffffffffffffff8111156101ed57634e487b7160e01b600052604160045260246000fd5b60405190808252806020026020018201604052801561022657816020015b61021361101c565b81526020019060019003908161020b5790505b50905061023283610f6a565b60005b8481101561038657600060058161024d8460016112a0565b81526020810191909152604001600020600401546001600160a01b031614801561029a5750600560006102818360016112a0565b815260208101919091526040016000206006015460ff16155b156103745760006102ac8260016112a0565b90506102b784610f6a565b6000818152600560208181526040928390208351610100810185528154815260018201546001600160a01b0390811693820193909352600282015494810194909452600381015482166060850152600481015490911660808401529081015460a0830152600681015460ff16151560c0830152600781015460e0830152845190919085908790811061035957634e487b7160e01b600052603260045260246000fd5b602090810291909101015261036f6001866112a0565b945050505b8061037e816112ef565b915050610235565b50949350505050565b6060600061039c60015490565b905060008060005b838110156103ff5733600560006103bc8460016112a0565b81526020810191909152604001600020600401546001600160a01b031614156103ed576103ea6001846112a0565b92505b806103f7816112ef565b9150506103a4565b5060008267ffffffffffffffff81111561042957634e487b7160e01b600052604160045260246000fd5b60405190808252806020026020018201604052801561046257816020015b61044f61101c565b8152602001906001900390816104475790505b50905060005b848110156103865733600560006104808460016112a0565b81526020810191909152604001600020600401546001600160a01b0316141561056e5760006104b08260016112a0565b6000818152600560208181526040928390208351610100810185528154815260018201546001600160a01b0390811693820193909352600282015494810194909452600381015482166060850152600481015490911660808401529081015460a0830152600681015460ff16151560c0830152600781015460e083015285519293509185908790811061055357634e487b7160e01b600052603260045260246000fd5b60209081029190910101526105696001866112a0565b945050505b80610578816112ef565b915050610468565b600260005414156105d85760405162461bcd60e51b815260206004820152601f60248201527f5265656e7472616e637947756172643a207265656e7472616e742063616c6c0060448201526064015b60405180910390fd5b60026000558061062a5760405162461bcd60e51b815260206004820152601c60248201527f5072696365206d757374206265206174206c656173742031207765690000000060448201526064016105cf565b6106356002826112b8565b3410156106d05760405162461bcd60e51b815260206004820152605c60248201527f596f75206e65656420746f207374616b65206d6f7265206f7220657175616c2060448201527f746f2068616c66207468652070726963652073706563696669656420666f722060648201527f70757474696e67206974656d7320696e206d61726b6574706c61636500000000608482015260a4016105cf565b6106de600180546001019055565b60006106e960015490565b60408051610100810182528281526001600160a01b0387811660208084018281528486018a8152336060870181815260006080890181815260a08a018e815260c08b018381523460e08d019081528e85526005998a9052938d90209b518c55965160018c0180546001600160a01b0319908116928d16929092179055955160028c0155925160038b0180548716918b16919091179055516004808b01805490961691909916179093555193870193909355905160068601805460ff19169115159190911790555160079094019390935592516323b872dd60e01b81529081019190915230602482015260448101869052919250906323b872dd90606401600060405180830381600087803b15801561080057600080fd5b505af1158015610814573d6000803e3d6000fd5b505060408051338152600060208201819052818301879052606082015290518693506001600160a01b038816925084917fb839d2fc2360661ebb1412a72f1eb24e012ecd8fd71ea2ad16aa05b462e5127b919081900360800190a4505060016000555050565b6000818152600560205260409020600401546001600160a01b031633146108a057600080fd5b600081815260056020526040808220600480820180546001600160a01b03191690555460079091015491516001600160a01b03909116926108fc831502929190818181858888f193505050501580156108fd573d6000803e3d6000fd5b50600090815260056020526040902060030180546001600160a01b0319169055565b600260005414156109725760405162461bcd60e51b815260206004820152601f60248201527f5265656e7472616e637947756172643a207265656e7472616e742063616c6c0060448201526064016105cf565b60026000818155828152600560208181526040928390209182015491909301548251808401909352600e83526d139195081c1c9a58d9480e88095960921b9383019390935291906109c39083610fb2565b8134146109e25760405162461bcd60e51b81526004016105cf90611242565b610a1760405180604001604052806013815260200172141c9bdd9a591959081d985b1d59480e880959606a1b81525034610fb2565b610a25600280546001019055565b6000838152600560205260408082206003015490516001600160a01b03909116913480156108fc02929091818181858888f19350505050158015610a6d573d6000803e3d6000fd5b506040516323b872dd60e01b8152306004820152336024820152604481018290526001600160a01b038516906323b872dd90606401600060405180830381600087803b158015610abc57600080fd5b505af1158015610ad0573d6000803e3d6000fd5b50505060009384525050600560205250604081206004810180546001600160a01b03191633179055600601805460ff19166001908117909155905550565b6000818152600560205260409020600401546001600160a01b03163314610b3457600080fd5b60008181526005602090815260409182902060040180546001600160a01b03191690558151606081019092526022808352610b88929161132190830139600083815260056020526040902060070154610fb2565b600081815260056020526040808220600381015460079091015491516001600160a01b039091169282156108fc02929190818181858888f193505050501580156108fd573d6000803e3d6000fd5b67016345785d8a0000341015610bfe5760405162461bcd60e51b81526004016105cf90611242565b610c0c600180546001019055565b6000610c1760015490565b60408051610100810182528281526001600160a01b0380881660208084018281528486018a815233606087018181528b871660808901908152600060a08a01818152600160c08c018181523460e08e019081528f855260059a8b9052938e90209c518d559751908c018054918c166001600160a01b0319928316179055955160028c0155925160038b018054918b1691871691909117905590516004808b01805492909a1691909516179097555193870193909355905160068601805491151560ff19909216919091179055925160079094019390935592516323b872dd60e01b815293945091926323b872dd92610d33929187918791016001600160a01b039384168152919092166020820152604081019190915260600190565b600060405180830381600087803b158015610d4d57600080fd5b505af1158015610d61573d6000803e3d6000fd5b50505050610d73600280546001019055565b50505050565b60606000610d8660015490565b905060008060005b83811015610de9573360056000610da68460016112a0565b81526020810191909152604001600020600301546001600160a01b03161415610dd757610dd46001846112a0565b92505b80610de1816112ef565b915050610d8e565b5060008267ffffffffffffffff811115610e1357634e487b7160e01b600052604160045260246000fd5b604051908082528060200260200182016040528015610e4c57816020015b610e3961101c565b815260200190600190039081610e315790505b50905060005b84811015610386573360056000610e6a8460016112a0565b81526020810191909152604001600020600301546001600160a01b03161415610f58576000610e9a8260016112a0565b6000818152600560208181526040928390208351610100810185528154815260018201546001600160a01b0390811693820193909352600282015494810194909452600381015482166060850152600481015490911660808401529081015460a0830152600681015460ff16151560c0830152600781015460e0830152855192935091859087908110610f3d57634e487b7160e01b600052603260045260246000fd5b6020908102919091010152610f536001866112a0565b945050505b80610f62816112ef565b915050610e52565b610faf81604051602401610f8091815260200190565b60408051601f198184030181529190526020810180516001600160e01b031663f5b1bba960e01b179052610ffb565b50565b610ff78282604051602401610fc89291906111e7565b60408051601f198184030181529190526020810180516001600160e01b03166309710a9d60e41b179052610ffb565b5050565b80516a636f6e736f6c652e6c6f67602083016000808483855afa5050505050565b6040518061010001604052806000815260200160006001600160a01b031681526020016000815260200160006001600160a01b0316815260200160006001600160a01b0316815260200160008152602001600015158152602001600081525090565b80356001600160a01b038116811461109557600080fd5b919050565b600080604083850312156110ac578182fd5b6110b58361107e565b946020939093013593505050565b6000806000606084860312156110d7578081fd5b6110e08461107e565b9250602084013591506110f56040850161107e565b90509250925092565b600080600060608486031215611112578283fd5b61111b8461107e565b95602085013595506040909401359392505050565b600060208284031215611141578081fd5b5035919050565b602080825282518282018190526000919060409081850190868401855b828110156111da57815180518552868101516001600160a01b039081168887015286820151878701526060808301518216908701526080808301519091169086015260a0808201519086015260c08082015115159086015260e090810151908501526101009093019290850190600101611165565b5091979650505050505050565b6040815260008351806040840152815b8181101561121457602081870181015160608684010152016111f7565b818111156112255782606083860101525b50602083019390935250601f91909101601f191601606001919050565b602080825260409082018190527f506c65617365207375626d6974207468652061736b696e672070726963652069908201527f6e206f7264657220746f20636f6d706c65746520746865207075726368617365606082015260800190565b600082198211156112b3576112b361130a565b500190565b6000826112d357634e487b7160e01b81526012600452602481fd5b500490565b6000828210156112ea576112ea61130a565b500390565b60006000198214156113035761130361130a565b5060010190565b634e487b7160e01b600052601160045260246000fdfe7472616e7366657272696e67207374616b656420746f2073656c6c6572203a202564a2646970667358221220c0922a84701fc29999d4fe6c7ec56aa608fa53af6818234f70ef7ae8b64edaa364736f6c63430008040033",
  "linkReferences": {},
  "deployedLinkReferences": {}
}